:020000040800F2
:10000000000002201120000821090008230900082F
:100010002509000827090008290900080000000038
:100020000000000000000000000000002B09000894
:100030002D090008000000002F0900083109000800
:10004000612000086120000861200008612000088C
:10005000612000086120000861200008612000087C
:10006000612000086120000861200008612000086C
:10007000612000086120000861200008612000085C
:10008000612000086120000861200008612000084C
:10009000612000086120000861200008612000083C
:1000A000612000086120000861200008612000082C
:1000B000612000083909000861200008612000085B
:1000C000612000086120000861200008612000080C
:1000D00061200008612000086120000861200008FC
:1000E00061200008612000086120000861200008EC
:1000F00061200008612000086120000861200008DC
:1001000061200008612000086120000861200008CB
:1001100061200008612000086120000861200008BB
:1001200061200008612000084909000861200008DA
:1001300061200008000000000000000061200008AD
:10014000612000086120000861200008612000088B
:10015000612000086120000859090008612000089A
:10016000612000086120000861200008612000086B
:10017000612000086120000800000000000000006D
:08018000612000086120000865
:1001880010B5054C237833B9044B13B10448AFF3C9
:1001980000800123237010BD0C0000200000000027
:1001A800BC20000808B5034B1BB103490348AFF353
:1001B800008008BD0000000010000020BC200008DE
:1001C80053B94AB9002908BF00281CBF4FF0FF31B6
:1001D8004FF0FF3000F072B9ADF1080C6DE904CEB4
:1001E80000F006F8DDF804E0DDE9022304B070470A
:1001F8002DE9F047089E04468846002B4BD18A42D9
:10020800154667D9B2FA82F24AB1C2F1200701FA5B
:1002180002F320FA07F7954047EA030894404FEAAB
:10022800154E230CB8FBFEF71FFA85FC0EFB17884A
:1002380043EA084307FB0CF1994209D9EB1807F187
:10024800FF3080F01B81994240F21881023F2B4415
:100258005B1AA4B2B3FBFEF00EFB103344EA03446E
:1002680000FB0CFCA44509D92C1900F1FF3380F0E0
:100278000781A44540F2048102382C4440EA074033
:10028800A4EB0C0400271EB1D4400023C6E90043A8
:100298003946BDE8F0878B4209D9002E00F0EB8083
:1002A8000027C6E9000138463946BDE8F087B3FAA9
:1002B80083F7002F47D18B4202D3824200F2FA80A3
:1002C800841A61EB030301209846002EE0D0C6E9AA
:1002D8000048DDE702B9FFDEB2FA82F2002A40F0F8
:1002E8008F80491B4FEA154E1FFA85F80127B1FB8D
:1002F800FEFC230C0EFB1C1143EA014308FB0CF126
:10030800994207D9EB180CF1FF3002D2994200F25A
:10031800CD808446591AA3B2B1FBFEF00EFB10142F
:1003280043EA044408FB00F8A04507D92C1900F15A
:10033800FF3302D2A04500F2B6801846A4EB0804A9
:1003480040EA0C409FE7C7F1200CBB4022FA0CFEA4
:100358004EEA030E01FA07F420FA0CF521FA0CF321
:100368004FEA1E482543B3FBF8F92C0C08FB193358
:100378001FFA8EFA44EA034309FB0AF49C4202FA84
:1003880007F200FA07F10BD91EEB030309F1FF305E
:1003980080F087809C4240F28480A9F1020973446E
:1003A8001B1BADB2B3FBF8F008FB103345EA03445E
:1003B80000FB0AFAA24508D91EEB040400F1FF333A
:1003C8006BD2A24569D90238744440EA0940A0FBBF
:1003D8000289A4EB0A044C45C2464B4654D351D07B
:1003E800002E69D0B1EB0A0564EB030404FA0CFC97
:1003F800FD40FC404CEA0505C6E90054002747E7E4
:10040800C2F1200320FA03F7954001FA02F021FA1D
:1004180003F34FEA154E3843010CB3FBFEF71FFAFE
:1004280085F80EFB173341EA034107FB08F38B42BB
:1004380004FA02F407D9691807F1FF3C2FD28B425E
:100448002DD9023F2944CB1A81B2B3FBFEF00EFB33
:10045800103341EA034100FB08F38B4207D96918BE
:1004680000F1FF3C17D28B4215D902382944C91A2A
:1004780040EA07473BE73746304609E70746E7E6DD
:100488001846FBE64145ABD2B8EB020A69EB0E020F
:1004980001381346A4E76046E9E7184695E767463A
:1004A800D1E781467CE702382C4447E7ACF1020CDF
:1004B8002B442FE7384608E73746E9E6704700BF80
:1004C80030B595B03022002108A801F0EBFD0024DA
:1004D8000394049405940694079401941C4B1A6C95
:1004E80042F080521A641B6C03F080530193019B05
:1004F8000294184B1A6842F480421A601B6803F48D
:1005080080430293029B012308934FF4803309939D
:1005180002250E954FF480030F93082310934FF490
:10052800A873119312950423139308A800F0CAFE28
:100538000F230393049505944FF4A05306934FF4A7
:1005480080530793052103A801F0F4F815B030BDD6
:10055800003802400070004008B501F0EFFCFFF7DA
:10056800AFFF00F021F800F0C9F800F073F800F0D0
:100578003FF900F0E5F84FF47A7001F00BFD084CF4
:1005880000220121204601F08BFA4FF47A7001F025
:1005980001FD01221146204601F082FAEBE700BF77
:1005A800000402407047000070B588B0002403942E
:1005B80004940594069407940094224B1A6B42F015
:1005C80080021A631A6B02F080020092009A01946A
:1005D8001A6B42F001021A631A6B02F001020192CF
:1005E800019A02941A6B42F002021A631B6B03F021
:1005F80002030293029B144D224640F6014128460D
:1006080001F04EFA0C230393104B04930594104EFB
:1006180003A9304601F060F930230393049405944C
:1006280003A9304601F058F940F60143039301232A
:1006380004930594069403A9284601F04DF908B0DF
:1006480070BD00BF003802400004024000001110D5
:100658000000024008B50B480B4B036010234360B1
:1006680000238360C3600361436103764376837626
:10067800C3760377437700F08FF900B908BDFFF719
:1006880091FFFBE7280000200064004000B589B016
:100698000023039304930593069307930268154B6D
:1006A8009A4202D009B05DF804FB0021019103F5DC
:1006B800EA331A6C42F000721A641A6C02F0007283
:1006C8000192019A02911A6B42F001021A631B6BA4
:1006D80003F001030293029B4FF4C05303930223D8
:1006E8000493032306930923079303A9024801F0FF
:1006F800F3F8D7E7006400400000024010B582B06C
:10070800002401940D4B1A6B42F480021A631B6B90
:1007180003F480030193019B224621463A2001F00D
:1007280091FB3A2001F0C2FB22462146462001F007
:1007380089FB462001F0BAFB02B010BD0038024028
:1007480000B587B0002302930393049305930093A5
:1007580001931548154A026044F2A0124260836072
:100768006322C260036100F09FFB98B906A94FF4A9
:10077800805341F8103D0C4800F0EFF968B90023A8
:10078800009301936946084800F0A7FB40B907B0F9
:100798005DF804FBFFF706FFE8E7FFF703FFEEE766
:1007A800FFF700FFF3E700BF5000002000040040FF
:1007B80002680E4B9A4200D0704700B583B0002102
:1007C800019103F50D331A6C42F002021A641B6C96
:1007D80003F002030193019B0A461D2001F032FB3E
:1007E8001D2001F063FB03B05DF804FB000400402A
:1007F80008B50A480A4B03604FF4E133436000230D
:100808008360C36003610C2242618361C36100F0AD
:1008180029FD00B908BDFFF7C5FEFBE74C01002024
:100828000010014030B589B0002303930493059369
:1008380006930793026803F1804303F588339A42CD
:1008480001D009B030BD04460025019503F5943365
:100858005A6C42F010025A645A6C02F0100201926B
:10086800019A02951A6B42F001021A631B6B03F09E
:1008780001030293029B4FF4C06303930223049382
:1008880001230593032306930723079303A91D4810
:1008980001F022F81C481D4B03604FF000634360D1
:1008A8008560C5604FF48063036145618561C561FA
:1008B8000562456201F060F9E8B9134B63639C6314
:1008C8001348144B03604FF0006343604023836078
:1008D8000023C3604FF480620261436183614FF477
:1008E8008072C2610362436201F046F930B9084B75
:1008F80023639C63A5E7FFF755FEDEE7FFF752FE8B
:10090800F5E700BF00000240EC0000204064024010
:100918008C000020B86402407047FEE7FEE7FEE75F
:10092800FEE770477047704708B501F021FB08BD26
:1009380008B5024800F09AF908BD00BF5000002031
:1009480008B5024801F07EF908BD00BFEC000020A0
:1009580008B5024801F076F908BD00BF8C000020F8
:1009680082B0002100910B4B5A6C42F480425A64C9
:100978005A6C02F480420092009A01911A6C42F07B
:1009880080521A641B6C03F080530193019B02B0E0
:10099800704700BF00380240002800F0A18038B539
:1009A800044690F82030D3B12268136823F002037C
:1009B800136001F0E9FA054623685A6812F0020F3D
:1009C80010D001F0E1FA401B0A28F5D9636A43F414
:1009D80000336362052384F82030012038BDFFF717
:1009E80055FEE1E71A6842F001021A6001F0CCFAFC
:1009F800054623685A6812F0010F0DD101F0C4FAB8
:100A0800401B0A28F5D9636A43F40033636205235F
:100A180084F820300120E1E7227E012A3DD01A68BF
:100A280022F080021A60637E012B3BD02268136893
:100A380023F040031360A37E012B39D0226813688A
:100A480023F020031360E37E012B37D0226813685C
:100A580043F010031360237F012B35D022681368FD
:100A680023F008031360637F012B33D022681368D7
:100A780023F004031360A368E26813432269134355
:100A8800626913436268013A21681343CB6100200D
:100A98006062012384F82030A0E71A6842F08002DF
:100AA8001A60C0E72268136843F040031360C2E786
:100AB8002268136843F020031360C4E722681368B0
:100AC80023F010031360C6E72268136843F0080395
:100AD8001360C8E72268136843F004031360CAE789
:100AE8000120704710B4036A046A24F00104046208
:100AF800846924F0F00444EA021223F00A030B4349
:100B0800826103625DF8044B704710B4036A23F0F6
:100B1800100303628469036A24F4704444EA0232CD
:100B280023F0A00343EA0113826103625DF8044BDA
:100B38007047836823F0700341F00701194381600F
:100B4800704710B4846824F47F4442EA03230B43BB
:100B5800234383605DF8044B704790F83830012BCD
:100B68007DD010B50446012380F83830022380F880
:100B780039300268936823F47F4323F07703936046
:100B88000B68402B57D010D9702B3ED01FD8502B54
:100B980047D0602B32D1CA6849680068FFF7B5FFB3
:100BA80060212068FFF7C5FF28E0102B4DD008D939
:100BB800202B4FD0302B21D130210068FFF7B9FF0F
:100BC8001CE0DBB900210068FFF7B3FF16E0B3F5BE
:100BD800805F0ED0B3F5005F10D1CB684A68896892
:100BE8000068FFF7AEFF2268936843F48043936080
:100BF80004E00268936823F007039360012384F8F4
:100C08003930002084F8380010BDCB684A688968FC
:100C18000068FFF796FF2268936843F077039360B4
:100C2800ECE7CA6849680068FFF75CFF5021206854
:100C3800FFF77FFFE2E7CA6849680068FFF752FFDD
:100C480040212068FFF775FFD8E710210068FFF7FB
:100C580070FFD3E720210068FFF76BFFCEE7022083
:100C680070477047704770477047704710B5044623
:100C780003681A6912F0020F11D0DA6812F0020F35
:100C88000DD06FF002021A610123037603689B6995
:100C980013F0030F70D0FFF7E6FF002323762368D5
:100CA8001A6912F0040F12D0DA6812F0040F0ED08D
:100CB8006FF004021A610223237623689B6913F4F8
:100CC800407F5FD02046FFF7CEFF002323762368BE
:100CD8001A6912F0080F12D0DA6812F0080F0ED055
:100CE8006FF008021A61042323762368DB6913F086
:100CF800030F4ED02046FFF7B6FF00232376236864
:100D08001A6912F0100F12D0DA6812F0100F0ED014
:100D18006FF010021A61082323762368DB6913F445
:100D2800407F3DD02046FFF79EFF002323762368AF
:100D38001A6912F0010F03D0DA6812F0010F36D1E8
:100D480023681A6912F0800F03D0DA6812F0800F56
:100D580034D123681A6912F0400F03D0DA6812F010
:100D6800400F32D123681A6912F0200F03D0DA68D5
:100D780012F0200F30D110BDFFF774FF2046FFF7A7
:100D880073FF8AE72046FFF76DFF2046FFF76CFFE9
:100D98009BE72046FFF766FF2046FFF765FFACE7B5
:100DA8002046FFF75FFF2046FFF75EFFBDE76FF0C5
:100DB80001021A612046FFF754FFC1E76FF0800275
:100DC8001A61204600F0B3F8C3E76FF040021A61D9
:100DD8002046FFF74AFFC5E76FF020021A61204658
:100DE80000F0A4F8C7E7000003682E4A904212D02A
:100DF800B0F1804F0FD0A2F57C4290420BD002F5A3
:100E08008062904207D002F58062904203D002F5DA
:100E18007842904203D123F070034A681343214A71
:100E280090422AD0B0F1804F27D0A2F57C42904260
:100E380023D002F5806290421FD002F58062904272
:100E48001BD002F57842904217D002F570529042BA
:100E580013D002F5806290420FD002F58062904272
:100E68000BD0A2F59832904207D002F580629042EA
:100E780003D002F58062904203D123F44073CA681C
:100E8800134303608B68C3620B688362054B984207
:100E980003D003F58063984201D10B6903630123F2
:100EA8004361704700000140A8B110B5044690F8AE
:100EB80039305BB1022384F83930211D2068FFF7EF
:100EC80093FF012384F83930002010BD80F83830B2
:100ED800FFF76EFCEEE70120704790F83830012BE1
:100EE80022D030B4012280F83820022380F839302B
:100EF8000468636823F070036360046863680D68BE
:100F08002B4363600468A36823F08003A36004682C
:100F1800A36849680B43A36080F83920002380F850
:100F28003830184630BC7047022070477047704709
:100F38002DE9F843044601680A6922F44052C3685F
:100F480013430B610168CA6822F4164222F00C02AE
:100F580083680069034360690343E06903431343FB
:100F6800CB6021684A6922F44072A36913434B613C
:100F7800E369B3F5004F60D02368B84A934200F0A4
:100F8800148102F58062934200F00F8100F084FC26
:100F980000EB800000EB80006568AD00B0FBF5F564
:100FA800AF4FA7FB05356D092E0100F075FC00EB6E
:100FB800800000EB80006568AD00B0FBF5F900F03B
:100FC8006BFC00EB800000EB80006568AD00B0FBB7
:100FD800F5F5A7FB05356D094FF0640808FB159575
:100FE8002D013235A7FB05356D0905F0F0053544AF
:100FF80000F052FC00EB800000EB80006668B60051
:10100800B0FBF6F600F048FC00EB800000EB800037
:1010180063689B00B0FBF3F0A7FB0030400908FBB6
:1010280010684FEA081808F13208A7FB0837C7F319
:10103800431723682F449F600DE12368874A934232
:101048005BD002F58062934257D000F025FC00EB9C
:10105800800000EB800065686D00B0FBF5F5804FFF
:10106800A7FB05356D092E0100F016FC00EB80008A
:1010780000EB800065686D00B0FBF5F900F00CFC32
:1010880000EB800000EB800065686D00B0FBF5F5B3
:10109800A7FB05356D094FF0640808FB1595ED00B1
:1010A8003235A7FB05356D096D0005F4F875354433
:1010B80000F0F2FB00EB800000EB80006668760031
:1010C800B0FBF6F600F0E8FB00EB800000EB8000D8
:1010D80063685B00B0FBF3F3A7FB03235B0908FB22
:1010E80013684FEAC80808F13208A7FB0837C7F3A6
:1010F800421723682F449F60ADE000F0DDFB00EB52
:10110800800000EB800065686D00B0FBF5F5544F7A
:10111800A7FB05356D092E0100F0CEFB00EB800022
:1011280000EB800065686D00B0FBF5F900F0C4FBCA
:1011380000EB800000EB800065686D00B0FBF5F502
:10114800A7FB05356D094FF0640808FB1595ED0000
:101158003235A7FB05356D096D0005F4F875354482
:1011680000F0AAFB00EB800000EB800066687600C8
:10117800B0FBF6F600F0A0FB00EB800000EB80006F
:1011880063685B00B0FBF3F3A7FB03235B0908FB71
:1011980013684FEAC80808F13208A7FB0837C7F3F5
:1011A800421723682F449F6055E000F085FB00EB51
:1011B800800000EB80006568AD00B0FBF5F5284FB6
:1011C800A7FB05356D092E0100F076FB00EB8000CA
:1011D80000EB80006568AD00B0FBF5F900F06CFB32
:1011E80000EB800000EB80006568AD00B0FBF5F512
:1011F800A7FB05356D094FF0640808FB15952D010F
:101208003235A7FB05356D0905F0F005354400F0CA
:1012180053FB00EB800000EB80006668B600B0FB73
:10122800F6F600F049FB00EB800000EB80006368F5
:101238009B00B0FBF3F0A7FB0030400908FB1068E7
:101248004FEA081808F13208A7FB0837C7F3431715
:1012580023682F449F60BDE8F88300BF0010014059
:101268001F85EB5158B310B5044690F839300BB3CD
:10127800242384F839302268D36823F40053D360D8
:101288002046FFF755FE2268136923F49043136143
:101298002268536923F02A0353612268D36843F410
:1012A8000053D3600020E063202384F8393084F8A9
:1012B8003A3010BD80F83830FFF7B4FAD8E701208B
:1012C80070470000002800F0BB8170B582B004466A
:1012D800036813F0010F3BD0A74B9B6803F00C0386
:1012E800042B2CD0A44B9B6803F00C03082B21D0B3
:1012F8006368B3F5803F4FD0B3F5A02F52D09E4B13
:101308001A6822F480321A601A6822F480221A605D
:101318006368002B50D000F037FE0546964B1B68DB
:1013280013F4003F14D100F02FFE401B6428F5D9B8
:1013380003208AE1904B5B6813F4800FD8D08E4B62
:101348001B6813F4003F03D06368002B00F07A8118
:10135800236813F0020F55D0874B9B6813F00C0FCE
:101368003ED0854B9B6803F00C03082B33D0E36811
:10137800002B68D0814B01221A6000F005FE05465B
:101388007D4B1B6813F0020F54D100F0FDFD401B8C
:101398000228F5D9032058E1774A136843F48033CB
:1013A8001360B5E7744B1A6842F480221A601A6811
:1013B80042F480321A60ABE700F0E6FD05466E4B5A
:1013C8001B6813F4003FC3D000F0DEFD401B642807
:1013D800F5D9032039E1684B5B6813F4800FC6D157
:1013E800654B1B6813F0020F04D0E368012B01D092
:1013F80001202AE1604A136823F0F803216943EACF
:10140800C1031360236813F0080F40D0636963B306
:101418005B4B01221A6000F0B7FD0546564B5B6F27
:1014280013F0020F33D100F0AFFD401B0228F5D9AD
:1014380003200AE1504A136823F0F803216943EABC
:10144800C1031360DEE74D4B00221A6000F09CFDDB
:101458000546494B1B6813F0020FD3D000F094FDEA
:10146800401B0228F5D90320EFE0454B00221A6003
:1014780000F08AFD0546404B5B6F13F0020F06D063
:1014880000F082FD401B0228F5D90320DDE0236827
:1014980013F0040F79D0384B1B6C13F0805F33D1F5
:1014A80000230193344B1A6C42F080521A641B6C6F
:1014B80003F080530193019B0125324B1B6813F401
:1014C800807F23D0A368012B34D0052B38D02A4B3A
:1014D8001A6F22F001021A671A6F22F004021A67C3
:1014E800A368002B36D000F04FFD0646224B1B6F39
:1014F80013F0020F48D100F047FD801B41F28833FA
:101508009842F3D90320A0E00025D6E71D4A1368C6
:1015180043F48073136000F037FD0646194B1B68CF
:1015280013F4807FCED100F02FFD801B0228F5D95F
:1015380003208AE0104A136F43F001031367CFE7D3
:101548000D4B1A6F42F004021A671A6F42F001023B
:101558001A67C5E700F018FD0646074B1B6F13F026
:10156800020F11D000F010FD801B41F28833984221
:10157800F3D9032069E000BF003802400000474269
:10158800800E474200700040E5B9A369002B5BD08C
:10159800304A926802F00C02082A58D0022B17D061
:1015A8002D4B00221A6000F0EFFC0446294B1B6803
:1015B80013F0007F42D000F0E7FC001B0228F5D9A9
:1015C800032042E0234A136C23F080531364DCE7C2
:1015D800214B00221A6000F0D7FC05461D4B1B6802
:1015E80013F0007F06D000F0CFFC401B0228F5D98D
:1015F80003202AE0E369226A1343626A43EA8213FA
:10160800A26A5208013A43EA0243E26A43EA0263E1
:10161800104A5360104B01221A6000F0B5FC0446D2
:101628000C4B1B6813F0007F06D100F0ADFC001BCB
:101638000228F5D9032008E0002006E0002004E095
:1016480001207047012000E0002002B070BD012099
:10165800FBE700BF0038024060004742324B9B68FE
:1016680003F00C03042B5CD0082B01D02F487047E3
:101678002DE9F04B2C4B5A6802F03F025B6813F4DB
:10168800800F2BD0284B5B68C3F388131E460027B6
:101698005C010025E41A65EB0705A90141EA94619C
:1016A800A001001B61EB0501CB0043EA5073C400A5
:1016B800A01943EB07014B0243EAD05344022046EA
:1016C80019460023FEF77CFD174B5B68C3F3014303
:1016D80001335B00B0FBF3F0BDE8F08B124B5B68A5
:1016E800C3F388131E4600275C010025E41A65EB46
:1016F8000705A90141EA9461A001001B61EB0501FE
:10170800CB0043EA5073C400A01943EB07018B02D6
:1017180043EA90538402204619460023FEF750FD01
:10172800D2E70348704700BF003802400024F400A5
:1017380000127A00002800F09D8070B504464F4BD7
:101748001B6803F00F038B4209D2CBB24B4A1370CC
:10175800136803F00F038B4201D0012070BD23688A
:1017680013F0020F17D013F0040F04D0444A936803
:1017780043F4E0539360236813F0080F04D0404A01
:10178800936843F4604393603D4A936823F0F00301
:10179800A068034393600D46236813F0010F32D00D
:1017A8006368012B21D09A1E012A25D9344A126870
:1017B80012F0020F60D032498A6822F00302134304
:1017C8008B6000F0E1FB06462D4B9B6803F00C0391
:1017D8006268B3EB820F16D000F0D6FB801B41F293
:1017E80088339842F0D90320B8E7254A126812F4E2
:1017F800003FE0D10120B1E7214A126812F0007FD2
:10180800D9D10120AAE71D4B1B6803F00F03AB4297
:1018180009D9EAB2194B1A701B6803F00F03AB42DF
:1018280001D001209AE7236813F0040F06D0144A68
:10183800936823F4E053E1680B439360236813F043
:10184800080F07D00E4A936823F46043216943EADE
:10185800C1039360FFF702FF094B9B68C3F30313AF
:10186800084AD35CD840084B1860002000F040FBC1
:10187800002073E70120704701206FE7003C024019
:1018880000380240DC20000808000020014B1868DE
:10189800704700BF0800002008B5FFF7F7FF044BAA
:1018A8009B68C3F38223034AD35CD84008BD00BFBA
:1018B80000380240EC20000808B5FFF7E7FF044BAA
:1018C8009B68C3F34233034AD35CD84008BD00BFCA
:1018D80000380240EC20000800230F2B00F2D780CC
:1018E800F0B482B039E0072200E00022B2403A4367
:1018F8000234674E46F82420664A1468EA4302EA2E
:1019080004064F6817F4803F01D045EA0406614C8D
:101918002660646802EA04064F6817F4003F01D0A5
:1019280045EA04065B4C6660A46802EA04064F6850
:1019380017F4801F01D045EA0406564CA660E468F7
:1019480022404E6816F4001F01D045EA0402514CAB
:10195800E26001330F2B00F2978001229A400C6855
:1019680004EA0205AA42F4D14C68022C01D0122CD8
:1019780010D1DE08083650F826C003F00704A70087
:101988000F24BC402CEA040C0C69BC4044EA0C044B
:1019980040F8264004685F000326BE40F64306EA86
:1019A800040C4C6804F00304BC4044EA0C040460D2
:1019B8004C6804F1FF3CBCF1010F03D9112C01D094
:1019C800122C10D1846806EA040CCC68BC4044EAA6
:1019D8000C048460446824EA02024C68C4F30014CE
:1019E8009C4014434460C26816408A68BA40324337
:1019F800C2604A6812F0805FABD000220192264A8A
:101A0800546C44F480445464526C02F48042019251
:101A1800019A9C08A61C1E4A52F8267003F003027D
:101A280096000F22B24027EA02071C4A90423FF470
:101A38005CAF02F5806290421AD002F58062904253
:101A480018D002F58062904216D002F5806290426A
:101A580014D002F58062904212D002F58062904262
:101A680010D002F5806290423FF43DAF08223DE776
:101A780001223BE7022239E7032237E7042235E750
:101A8800052233E7062231E702B0F0BC7047704701
:101A980000380140003C014000380240000002408C
:101AA80012B9090481617047816170470268D3B235
:101AB800103B0B49A1FB03131B090A49C95CC1650B
:101AC800032B06D822F47F7222F003028265806D10
:101AD800704722F47F7222F0030204328265F6E72F
:101AE800ABAAAAAAD4200008836A826992B9012BFA
:101AF8000AD01BB1022B01D000207047C36A13F033
:101B0800807F2CD100207047C36AB3F1C07F28D0F2
:101B180000207047B2F5005F05D0022B29D9032BAE
:101B280015D000207047032B03D8DFE803F01C040E
:101B38001C0A00207047C36A13F0807F15D100206B
:101B48007047C36AB3F1C07F11D000207047C36AE1
:101B580013F0807F01D001207047002070470120DA
:101B6800704701207047012070470120704701200D
:101B7800704701207047000070B5044600F004FA71
:101B8800002C5BD00546002384F83430022384F807
:101B980035302268136823F00103136023681A683C
:101BA80012F0010F0AD000F0EFF9401B0528F5D913
:101BB80020236365032084F8350070BD1A68204827
:101BC80010406168A2680A43E1680A4321690A4330
:101BD80061690A43A1690A43E1690A43216A0A4320
:101BE8000243616A04291ED01A602668756925F0C7
:101BF8000705636A1D43042B07D1A36A1D43E36AE3
:101C08001BB12046FFF770FF90B975612046FFF7BA
:101C18004DFFE26D3F239340836000206065012300
:101C280084F83530C9E7E16A206B01430A43DBE7F2
:101C380040236365012084F83500BEE70120BCE736
:101C48003F8010F0F0B583B0044600230193724B37
:101C58001D68724BA3FB0535AD0A876D3E68C26DE2
:101C680008239340334210D003681A6812F0040F17
:101C78000BD01A6822F004021A60C26D0823934040
:101C8800BB60436D43F001034365E26D012393405C
:101C9800334209D02268526912F0800F04D0BB6029
:101CA800636D43F002036365E26D0423934033429E
:101CB80009D02268126812F0020F04D0BB60636D6D
:101CC80043F004036365E26D10239340334224D04C
:101CD8002268126812F0080F1FD0BB6023681A68C8
:101CE80012F4802F0DD01B6813F4002F04D1236C3D
:101CF8009BB12046984710E0A36C73B120469847E3
:101D08000BE01A6812F4807F03D11A6822F00802E7
:101D18001A60236C0BB120469847E26D202393404C
:101D2800334255D02268126812F0100F50D0BB60B1
:101D380094F83530DBB2052B0ED023681A6812F4FC
:101D4800802F33D01B6813F4002F2AD1636C002B2B
:101D58003ED0204698473BE02268136823F01603DC
:101D680013602268536923F080035361236CA3B185
:101D78002268136823F008031360E26D3F23934041
:101D8800BB60002384F83430012384F83530236D98
:101D9800002B3FD0204698473CE0A36C002BE7D1AE
:101DA800EBE7E36BA3B12046984711E01A6812F4F9
:101DB800807F09D11A6822F010021A60002384F883
:101DC8003430012384F83530E36B0BB12046984753
:101DD800636DFBB1636D13F0010F17D0052384F811
:101DE80035302268136823F001031360019B013327
:101DF8000193AB4204D823681B6813F0010FF5D197
:101E0800002384F83430012384F83530E36C0BB1B7
:101E18002046984703B0F0BD08000020B5814E1B4E
:101E2800074AD36823F4E0631B041B0C000200F488
:101E3800E060184340F0BF6040F40030D060704765
:101E480000ED00E030B4174BDB68C3F30223C3F1A5
:101E58000704042C28BF04241D1D062D18D9033B94
:101E68004FF0FF3505FA04F421EA0401994005FA18
:101E780003F322EA0303194300280BDB0901C9B263
:101E880000F1604000F5614080F8001330BC7047F5
:101E98000023E5E700F00F000901C9B2024B19540D
:101EA800F4E700BF00ED00E014ED00E000F01F02D1
:101EB800400901239340024A42F82030704700BF8E
:101EC80000E100E00138B0F1807F0AD2064B58608B
:101ED800064AF02182F823100020986007221A6031
:101EE80070470120704700BF10E000E000ED00E0FF
:101EF80010B504460E4B18784FF47A73B3FBF0F321
:101F08000C4A1068B0FBF3F0FFF7DCFF68B90F2C40
:101F180001D901200AE0002221464FF0FF30FFF7E7
:101F280091FF054B1C60002000E0012010BD00BFA0
:101F380000000020080000200400002008B50B4B1A
:101F48001A6842F400721A601A6842F480621A60D1
:101F58001A6842F480721A600320FFF761FF0020BC
:101F6800FFF7C6FFFEF7FCFC002008BD003C02405E
:101F7800034A1168034B1B780B441360704700BF7A
:101F88008C01002000000020014B1868704700BF3A
:101F98008C01002038B50446FFF7F6FF0546B4F17A
:101FA800FF3F02D0044B1B781C44FFF7EDFF401B9A
:101FB800A042FAD338BD00BF000000200F49D1F875
:101FC800883043F47003C1F888300D4B1A6842F02A
:101FD80001021A60002098601A6822F0847222F4C4
:101FE80080321A60074A5A601A6822F480221A60FE
:101FF800D8604FF000638B60704700BF00ED00E0D1
:102008000038024010300024DFF834D0002103E00B
:102018000C4B5B58435004310B480C4B42189A4206
:10202800F6D30B4A02E0002342F8043B094B9A42DC
:10203800F9D3FFF7C3FF00F011F8FEF78DFA7047E8
:102048000000022004210008000000200C000020ED
:102058000C00002090010020FEE7000070B50D4E36
:102068000D4CA41BA4100025A54209D10B4E0C4C05
:1020780000F020F8A41BA4100025A54205D170BDCE
:1020880056F8253098470135EEE756F82530984739
:102098000135F2E7FC200008FC200008FC200008BD
:1020A8000021000802440346934200D1704703F818
:1020B800011BF9E7F8B500BFF8BC08BC9E4670479D
:0C20C800F8B500BFF8BC08BC9E4670478D
:1020D40000061016000610160000000000000000A4
:1020E40001020304060708090000000001020304BA
:0820F40004E1FF7F0100000080
:0420FC00AD0100082A
:042100008901000849
:0C21040001000000100000000024F400A6
:0400000508002011BE
:00000001FF
